:100000000C9434000C9451000C9451000C94510049
:100010000C9451000C949C000C9451000C945100D1
:100020000C9451000C9451000C9451000C9451000C
:100030000C9451000C9451000C9451000C945100FC
:100040000C94F3010C9451000C9451000C94510049
:100050000C9451000C9451000C9451000C945100DC
:100060000C9451000C94510011241FBECFEFD8E026
:10007000DEBFCDBF11E0A0E0B1E0E6E6F6E002C0F1
:1000800005900D92AA30B107D9F721E0AAE0B1E0BE
:1000900001C01D92AB31B207E1F70E941B010C9425
:1000A00031030C9400001092C50087E68093C400D1
:1000B00080E18093C10086E08093C2002FEF83EC43
:1000C00099E0215080409040E1F700C00000089581
:1000D0008091C00087FFFCCF8091C60008951F93D8
:1000E000CF93DF930E94680090ED980F9A30D0F77D
:1000F000C0E0D0E01AE01C9F90011D9F300D11243C
:100100008053E901C80FD11D87FDDA950E94680070
:1001100090ED980F9A3078F3CE01DF91CF911F9137
:100120000895E8E6F0E0808184608083EDE6F0E009
:1001300080818063808308951F921FB61F921124CF
:100140002F933F934F935F938F939F93AF93BF935F
:1001500089B184FF49C085FD3BC085E090911301C2
:10016000911147C0409114015091150121E030E0F8
:10017000452B11F020E030E030931501209314015D
:1001800091E09093130110920F01109210011092C0
:1001900011011092120180930A0180911401909133
:1001A0001501892B19F581E090E090931901809356
:1001B00018018FEF9FEF90931701809316012FEF97
:1001C00080E792E0215080409040E1F700C00000BD
:1001D000BF91AF919F918F915F914F913F912F91DF
:1001E0001F901FBE1F90189584E0B8CF82E090E06A
:1001F000DCCF90910A01981711F31092130110921D
:10020000190110921801109217011092160115B8D9
:1002100080910F0190911001A0911101B0911201F4
:1002200080930B0190930C01A0930D01B0930E01EC
:1002300010920A01C4CF00D000D000D0CDB7DEB7F5
:1002400084E085BD81E080936E0084B18F6084B9C5
:1002500015B88AB18F7C8AB98BB180638BB90E9443
:1002600053000E9491007894FF24F39484E6C82EF2
:10027000D12CAA24A394B12C24E6422E512C612C1B
:10028000712C80911301811153C080910B019091C9
:100290000C01A0910D01B0910E01892B8A2B8B2BA3
:1002A00009F446C00E946F008C010E946F008D838C
:1002B0009E830536110528F78D819E81019702974F
:1002C00000F720910B0130910C0140910D015091EC
:1002D0000E01D8010E94FB0269837A838B839C8381
:1002E00021E030E0643671058105910520F0A3011D
:1002F00092010E94D9028D819E8190931901809371
:1003000018013093170120931601F09213011092F7
:100310000F0110921001109211011092120110920F
:100320000B0110920C0110920D0110920E01A9CF39
:100330000E946F008D8399830E946F009C0101973A
:10034000029790F560910801709109014D815981E2
:100350004536510514F044E650E0469FC001479FE2
:10036000900D569F900D1124B6010E94C502709306
:100370001701609316018091160190911701892B46
:1003800021F4B0921701A092160130931901209325
:100390001801F092130110920F01109210011092A7
:1003A0001101109212016DCF2115310561F41092E7
:1003B0001901109218011092170110921601109253
:1003C000130115B85ECF2330310589F7109215015E
:1003D0001092140130931901209318011092090111
:1003E00010920801D6CF0F920FB60F921F921124D0
:1003F0002F933F938F939F93AF93BF93EF93FF936D
:100400008091180190911901019739F0809118019C
:1004100090911901029709F06FC080911601909197
:100420001701892B09F460C080911801909119017E
:10043000019709F044C080911A018F5F80931A01DF
:1004400080910F0190911001A0911101B0911201C2
:100450000196A11DB11D80930F0190931001A093EF
:100460001101B093120180911A01883064F1109249
:100470001A01E0911A010E2E000CFF0BE050FF4F05
:10048000808185B98091160190911701181619067F
:1004900014F580911601909117010197909317011F
:1004A00080931601FF91EF91BF91AF919F918F9132
:1004B0003F912F911F900F900FBE0F901895809134
:1004C0001A018150BBCF80911A0187FFD2CF87E0FC
:1004D00080931A01CECF809116019091170197FF5A
:1004E000E1CF8FEF9FEFDACF109219011092180130
:1004F0001092130115B8D6CF80911801909119016F
:100500000397C1F74C9902C04D9B0FC02091140175
:100510003091150181E090E02115310511F080E066
:1005200090E09093150180931401809114019091B3
:100530001501892BF1F480911A018F5F80931A01C4
:1005400080911A018830CCF010921A01E0911A01C2
:100550000E2E000CFF0BE050FF4F808185B980917B
:100560000801909109010196909309018093080177
:1005700099CF80911A018150E1CF80911A0187FFB4
:10058000E5CF87E080931A01E1CF97FB072E16F4A1
:10059000009407D077FD09D00E94030307FC05D023
:1005A0003EF4909581959F4F0895709561957F4F8A
:1005B0000895A1E21A2EAA1BBB1BFD010DC0AA1FA4
:1005C000BB1FEE1FFF1FA217B307E407F50720F0BC
:1005D000A21BB30BE40BF50B661F771F881F991F37
:1005E0001A9469F760957095809590959B01AC0180
:1005F000BD01CF010895B7FF0C9417030E941703A4
:10060000821B930B0895AA1BBB1B51E107C0AA1FB5
:10061000BB1FA617B70710F0A61BB70B881F991FA3
:100620005A95A9F780959095BC01CD0108950E9437
:100630002203A59F900DB49F900DA49F800D911D46
:1006400011240895A29FB001B39FC001A39F700D14
:10065000811D1124911DB29F700D811D1124911DCA
:060660000895F894FFCF9D
:0A06660001030206040C0809E80372
:00000001FF
